:020000040000FA
:10000000850186018701880189018316031788010C
:100010008901031387010F308600831200308700A7
:1000200000308600061C12280808A000200887005F
:100030008618252806192E2886193E2818282208F1
:100040008700061C2128552824280808A10020081C
:100050002107A2008030031886001F280808A1008D
:1000600021082002A200031C36281F2880308600A9
:100070002208003CA2002208870035280808A100B9
:100080000030A2002108A400FF30200503191F281A
:10009000FF30210503191F282008A207803003180C
:1000A0008600A403031D4C281F280030860020086A
:1000B000A4000030A300FF30210503196B28FF3096
:1000C0002005031974282108A402031C70280319B1
:1000D0007328A30A6328FF30A300803086007428A9
:0E00E000803086007428A30A23088700242895
:0200EE000034DC
:0200F0000034DA
:02400E00E423A9
:02401000FF3F70
:00000001FF
