:020000040000FA
:10000000850186018701880189018316031788010C
:100010008901031387010F308600831200308700A7
:1000200000308600061C12280808A000200887005F
:100030008618252806192E288619372818282208F8
:100040008700061C21284E2824280808A100200823
:100050002107A2008030031886001F280808A1008D
:1000600021082002A2008030031C86001F280808F7
:10007000A1000030A2002108A400FF3020050319D0
:100080001F28FF30210503191F282008A2078030F0
:1000900003188600A403031D45281F28003086008E
:1000A0002008A4000030A300FF30210503196428B4
:1000B000FF30210503196828A30A2108A4020319A7
:1000C0006828031C66285C28FF30A3008030860067
:0600D0002308870024282C
:0400D60000340034BE
:02400E00E423A9
:02401000FF3F70
:00000001FF
