:020000040000FA
:10000000850186018701880189018316031788010C
:100010008901031387010F308600831200308700A7
:1000200000308600061C12280808A0008618232825
:1000300006192C2886193528162822088700061C40
:100040001F284C2822280808A10020082107A20008
:100050008030031886001D280808A100210820020E
:10006000A2008030031C86001D280808A100003073
:10007000A2002108A400FF30200503191D28FF302D
:10008000210503191D282008A403A207031D4328E6
:100090008030031C86001D282008A4000030A30027
:1000A000FF30210503196028FF302105031964285A
:1000B000A30A2108A40203196428031C62285828F3
:0E00C000FF30A300803086002308870022282E
:0200CE000034FC
:0200D0000034FA
:02400E00E423A9
:02401000FF3F70
:00000001FF
